:100000000C9458000C9480000C9480000C94800098
:100010000C9480000C9480000C9480000C94800060
:100020000C9480000C9480000C9480000C94800050
:100030000C9480000C9480000C9480000C94800040
:100040000C94CC010C9480000C943C020C9416028D
:100050000C9480000C9480000C9480000C94800020
:100060000C9480000C948000000000002300260007
:10007000290004040404040404040202020202022B
:10008000030303030303010204081020408001025C
:1000900004081020010204081020000000080002DB
:1000A0000100000304070000000000000000080336
:1000B00011241FBECFEFD8E0DEBFCDBF11E0A0E01E
:1000C000B1E0E8ECF6E002C005900D92A031B10776
:1000D000D9F721E0A0E1B1E001C01D92A63BB20733
:1000E000E1F710E0C8E5D0E004C02197FE010E94CE
:1000F0005703C735D107C9F70E946E020C946203FB
:100100000C940000FC01918D828D981761F0828D16
:10011000DF01A80FB11D5D968C91928D9F5F9F733B
:10012000928F90E008958FEF9FEF0895FC01918DDD
:10013000828D981731F0828DE80FF11D858D90E04A
:1001400008958FEF9FEF0895FC01918D228D892FE7
:1001500090E0805C9F4F821B91098F7399270895CF
:10016000FC01848DDF01A80FB11DA35ABF4F2C9154
:10017000848D90E001968F739927848FA689B78923
:100180002C93A089B1898C9180648C93938D848DFC
:10019000981306C00288F389E02D80818F7D8083CB
:1001A0000895EF92FF920F931F93CF93DF93EC018B
:1001B00081E0888F9B8D8C8D981305C0E889F98923
:1001C000808185FD24C0F62E0B8D10E00F5F1F4F40
:1001D0000F731127E02E8C8DE8120CC00FB607FCB0
:1001E000FACFE889F989808185FFF5CFCE010E9499
:1001F000B000F1CF8B8DFE01E80FF11DE35AFF4FE8
:10020000F0820B8FEA89FB898081806207C0EE89CA
:10021000FF896083E889F98980818064808381E037
:1002200090E0DF91CF911F910F91FF90EF90089593
:10023000CF93DF93EC01888D8823C9F0EA89FB898D
:10024000808185FD05C0A889B9898C9186FD0FC084
:100250000FB607FCF5CF808185FFF2CFA889B98959
:100260008C9185FFEDCFCE010E94B000E7CFDF91EA
:10027000CF91089589E191E00E94A40021E0892BAB
:1002800009F420E0822F089580E090E0892B29F086
:100290000E943A0181110C9400000895CF92DF92E0
:1002A000EF92FF920F931F93CF93DF936C017A012C
:1002B0008B01C0E0D0E0CE15DF0589F0D8016D914B
:1002C0008D01D601ED91FC910190F081E02DC601E8
:1002D0000995892B11F47E0102C02196ECCFC7014C
:1002E000DF91CF911F910F91FF90EF90DF90CF9012
:1002F00008958F929F92AF92BF920F931F93CF93C7
:10030000DF93CDB7DEB7A1970FB6F894DEBF0FBE6F
:10031000CDBF19A2423008F44AE08E010F5D1F4F95
:10032000842E912CA12CB12CA50194010E9435039F
:10033000E62FB901CA0101501109EA3014F4E05D59
:1003400001C0E95CD801EC93232B242B252B61F70A
:100350000115110571F0F80101900020E9F73197BE
:10036000AF01401B510BB80189E191E00E944E01A1
:1003700002C080E090E0A1960FB6F894DEBF0FBEF9
:10038000CDBFDF91CF911F910F91BF90AF909F9004
:100390008F9008950E945D031F920F920FB60F92E7
:1003A00011242F933F938F939F93AF93BF9380918B
:1003B000150190911601A0911701B091180130918B
:1003C000140123E0230F2D3720F40196A11DB11D48
:1003D00005C026E8230F0296A11DB11D209314012C
:1003E0008093150190931601A0931701B093180103
:1003F0008091100190911101A0911201B09113010F
:100400000196A11DB11D8093100190931101A0933D
:100410001201B0931301BF91AF919F918F913F91C2
:100420002F910F900FBE0F901F9018951F920F9253
:100430000FB60F9211242F933F934F935F936F93B7
:100440007F938F939F93AF93BF93EF93FF9389E134
:1004500091E00E94B000FF91EF91BF91AF919F9109
:100460008F917F916F915F914F913F912F910F905D
:100470000FBE0F901F9018951F920F920FB60F92FC
:1004800011242F938F939F93EF93FF93E091290172
:10049000F0912A018081E0912F01F091300182FDDD
:1004A00012C09081809132018F5F8F732091330150
:1004B000821751F0E0913201F0E0E75EFE4F958F38
:1004C0008093320101C08081FF91EF919F918F91C4
:1004D0002F910F900FBE0F901F901895789484B5B0
:1004E000826084BD84B5816084BD85B5826085BD30
:1004F00085B5816085BD80916E00816080936E00BE
:1005000010928100809181008260809381008091AF
:100510008100816080938100809180008160809360
:1005200080008091B10084608093B1008091B00020
:1005300081608093B00080917A00846080937A001B
:1005400080917A00826080937A0080917A00816045
:1005500080937A0080917A00806880937A0010926C
:10056000C100CCE9D0E008E810E044E7E42E40E028
:10057000F42EFE019491F8012491F70184918823CF
:1005800009F43AC0992339F1933091F038F491305D
:10059000A9F0923001F594B59F7D12C0973091F08B
:1005A0009830A1F09430B9F4909180009F7D03C001
:1005B000909180009F77909380000DC094B59F77B5
:1005C00094BD09C09091B0009F7703C09091B00096
:1005D0009F7D9093B00090E0880F991F88599F4F9E
:1005E000FC01A591B4918C91282391E080E009F45D
:1005F00090E0692F782F02C060E070E0072E000CB9
:10060000880B990B4AE00E9479010E944401B1CF06
:10061000E9E1F1E01382128288EE93E0A0E0B0E01D
:1006200084839583A683B78384E091E0918380835C
:1006300085EC90E09587848784EC90E097878687A7
:1006400080EC90E0918B808B81EC90E0938B828B9F
:1006500082EC90E0958B848B86EC90E0978B868B78
:10066000118E128E138E148E0895A1E21A2EAA1BDB
:10067000BB1BFD010DC0AA1FBB1FEE1FFF1FA21752
:10068000B307E407F50720F0A21BB30BE40BF50B4F
:10069000661F771F881F991F1A9469F760957095D8
:1006A000809590959B01AC01BD01CF010895EE0F9F
:1006B000FF1F0590F491E02D099481E090E0F894FB
:0806C0000C946203F894FFCFD3
:1006C80000000000D1004E01A4008200960018012D
:00000001FF
